{
    "contractName": "messages",
    "abi": [
        {
            "anonymous": false,
            "inputs": [
                {
                    "indexed": true,
                    "internalType": "address",
                    "name": "previousOwner",
                    "type": "address"
                },
                {
                    "indexed": true,
                    "internalType": "address",
                    "name": "newOwner",
                    "type": "address"
                }
            ],
            "name": "OwnershipTransferred",
            "type": "event"
        },
        {
            "anonymous": false,
            "inputs": [
                {
                    "indexed": false,
                    "internalType": "address",
                    "name": "_sender",
                    "type": "address"
                },
                {
                    "indexed": false,
                    "internalType": "uint256[]",
                    "name": "_messageIdArray",
                    "type": "uint256[]"
                }
            ],
            "name": "allMessagesRemoved",
            "type": "event"
        },
        {
            "anonymous": false,
            "inputs": [
                {
                    "indexed": false,
                    "internalType": "address",
                    "name": "_sender",
                    "type": "address"
                },
                {
                    "indexed": false,
                    "internalType": "uint256",
                    "name": "_amount",
                    "type": "uint256"
                }
            ],
            "name": "donationSent",
            "type": "event"
        },
        {
            "anonymous": false,
            "inputs": [
                {
                    "indexed": false,
                    "internalType": "address",
                    "name": "_sender",
                    "type": "address"
                },
                {
                    "indexed": false,
                    "internalType": "uint256",
                    "name": "_messageId",
                    "type": "uint256"
                },
                {
                    "indexed": false,
                    "internalType": "string",
                    "name": "_newMessage",
                    "type": "string"
                }
            ],
            "name": "messageEdited",
            "type": "event"
        },
        {
            "anonymous": false,
            "inputs": [
                {
                    "indexed": false,
                    "internalType": "address",
                    "name": "_sender",
                    "type": "address"
                },
                {
                    "indexed": false,
                    "internalType": "uint256",
                    "name": "_messageId",
                    "type": "uint256"
                }
            ],
            "name": "messageRemoved",
            "type": "event"
        },
        {
            "anonymous": false,
            "inputs": [
                {
                    "indexed": false,
                    "internalType": "address",
                    "name": "_sender",
                    "type": "address"
                },
                {
                    "indexed": false,
                    "internalType": "uint256",
                    "name": "_messageId",
                    "type": "uint256"
                },
                {
                    "indexed": false,
                    "internalType": "string",
                    "name": "_message",
                    "type": "string"
                }
            ],
            "name": "newMessage",
            "type": "event"
        },
        {
            "anonymous": false,
            "inputs": [
                {
                    "indexed": false,
                    "internalType": "address",
                    "name": "_recipient",
                    "type": "address"
                },
                {
                    "indexed": false,
                    "internalType": "uint256",
                    "name": "_amount",
                    "type": "uint256"
                }
            ],
            "name": "withdrawalTriggered",
            "type": "event"
        },
        {
            "inputs": [
                {
                    "internalType": "address",
                    "name": "",
                    "type": "address"
                }
            ],
            "name": "addressToAmountOfMessages",
            "outputs": [
                {
                    "internalType": "uint256",
                    "name": "",
                    "type": "uint256"
                }
            ],
            "stateMutability": "view",
            "type": "function"
        },
        {
            "inputs": [],
            "name": "donate",
            "outputs": [],
            "stateMutability": "payable",
            "type": "function"
        },
        {
            "inputs": [],
            "name": "messageId",
            "outputs": [
                {
                    "internalType": "uint256",
                    "name": "",
                    "type": "uint256"
                }
            ],
            "stateMutability": "view",
            "type": "function"
        },
        {
            "inputs": [
                {
                    "internalType": "uint256",
                    "name": "",
                    "type": "uint256"
                }
            ],
            "name": "messageIdToAddress",
            "outputs": [
                {
                    "internalType": "address",
                    "name": "",
                    "type": "address"
                }
            ],
            "stateMutability": "view",
            "type": "function"
        },
        {
            "inputs": [
                {
                    "internalType": "uint256",
                    "name": "",
                    "type": "uint256"
                }
            ],
            "name": "messagesArray",
            "outputs": [
                {
                    "internalType": "string",
                    "name": "",
                    "type": "string"
                }
            ],
            "stateMutability": "view",
            "type": "function"
        },
        {
            "inputs": [
                {
                    "internalType": "uint256",
                    "name": "_messageId",
                    "type": "uint256"
                },
                {
                    "internalType": "string",
                    "name": "_newMessage",
                    "type": "string"
                }
            ],
            "name": "modifyIndividualMessage",
            "outputs": [],
            "stateMutability": "nonpayable",
            "type": "function"
        },
        {
            "inputs": [],
            "name": "owner",
            "outputs": [
                {
                    "internalType": "address",
                    "name": "",
                    "type": "address"
                }
            ],
            "stateMutability": "view",
            "type": "function"
        },
        {
            "inputs": [],
            "name": "removeAllMessages",
            "outputs": [],
            "stateMutability": "nonpayable",
            "type": "function"
        },
        {
            "inputs": [
                {
                    "internalType": "address",
                    "name": "_address",
                    "type": "address"
                }
            ],
            "name": "removeAllMessagesOfSpecificUser",
            "outputs": [],
            "stateMutability": "nonpayable",
            "type": "function"
        },
        {
            "inputs": [
                {
                    "internalType": "uint256",
                    "name": "_messageId",
                    "type": "uint256"
                }
            ],
            "name": "removeIndividualMessage",
            "outputs": [],
            "stateMutability": "nonpayable",
            "type": "function"
        },
        {
            "inputs": [
                {
                    "internalType": "uint256",
                    "name": "_messageId",
                    "type": "uint256"
                }
            ],
            "name": "removeIndividualUserMessage",
            "outputs": [],
            "stateMutability": "nonpayable",
            "type": "function"
        },
        {
            "inputs": [],
            "name": "renounceOwnership",
            "outputs": [],
            "stateMutability": "nonpayable",
            "type": "function"
        },
        {
            "inputs": [
                {
                    "internalType": "address",
                    "name": "newOwner",
                    "type": "address"
                }
            ],
            "name": "transferOwnership",
            "outputs": [],
            "stateMutability": "nonpayable",
            "type": "function"
        },
        {
            "inputs": [
                {
                    "internalType": "address",
                    "name": "_address",
                    "type": "address"
                }
            ],
            "name": "viewAddressMessageIds",
            "outputs": [
                {
                    "internalType": "uint256[]",
                    "name": "",
                    "type": "uint256[]"
                }
            ],
            "stateMutability": "view",
            "type": "function"
        },
        {
            "inputs": [
                {
                    "internalType": "address",
                    "name": "_address",
                    "type": "address"
                }
            ],
            "name": "viewAddressMessages",
            "outputs": [
                {
                    "internalType": "string[]",
                    "name": "",
                    "type": "string[]"
                }
            ],
            "stateMutability": "view",
            "type": "function"
        },
        {
            "inputs": [
                {
                    "internalType": "address payable",
                    "name": "_to",
                    "type": "address"
                }
            ],
            "name": "withdrawDonations",
            "outputs": [],
            "stateMutability": "nonpayable",
            "type": "function"
        },
        {
            "inputs": [
                {
                    "internalType": "string",
                    "name": "_message",
                    "type": "string"
                }
            ],
            "name": "writeMessage",
            "outputs": [],
            "stateMutability": "nonpayable",
            "type": "function"
        }
    ],
    "bytecode": "608060405234801561001057600080fd5b5061001a3361001f565b61006f565b600080546001600160a01b038381166001600160a01b0319831681178455604051919092169283917f8be0079c531659141344cd1fd0a4f28419497f9722a3daafe3b4186f6b6457e09190a35050565b6111728061007e6000396000f3fe6080604052600436106100fe5760003560e01c80638da5cb5b11610095578063b588bfad11610064578063b588bfad146102d4578063c8f865a2146102f4578063db704d3d14610314578063ed88c68e14610334578063f2fde38b1461033c57600080fd5b80638da5cb5b146102375780639f27df0d14610269578063a152b9951461029f578063a56f5b53146102b457600080fd5b80636d9966d1116100d15780636d9966d1146101a8578063715018a6146101d557806374c50db4146101ea57806379fd65f51461021757600080fd5b80632bd10f42146101035780633dda770e14610125578063669f618b146101655780636b8941c01461017b575b600080fd5b34801561010f57600080fd5b5061012361011e366004610dcd565b61035c565b005b34801561013157600080fd5b50610152610140366004610dfb565b60046020526000908152604090205481565b6040519081526020015b60405180910390f35b34801561017157600080fd5b5061015260025481565b34801561018757600080fd5b5061019b610196366004610dfb565b6103fc565b60405161015c9190610e5a565b3480156101b457600080fd5b506101c86101c3366004610dfb565b6104d4565b60405161015c9190610eba565b3480156101e157600080fd5b50610123610638565b3480156101f657600080fd5b5061020a610205366004610dcd565b610677565b60405161015c9190610f1c565b34801561022357600080fd5b50610123610232366004610dcd565b610723565b34801561024357600080fd5b506000546001600160a01b03165b6040516001600160a01b03909116815260200161015c565b34801561027557600080fd5b50610251610284366004610dcd565b6003602052600090815260409020546001600160a01b031681565b3480156102ab57600080fd5b506101236107e4565b3480156102c057600080fd5b506101236102cf366004610dfb565b6108a2565b3480156102e057600080fd5b506101236102ef366004610f78565b61094b565b34801561030057600080fd5b5061012361030f366004610dfb565b610a1d565b34801561032057600080fd5b5061012361032f366004610fba565b610b0a565b610123610b9b565b34801561034857600080fd5b50610123610357366004610dfb565b610bd5565b6000818152600360205260409020546001600160a01b0316331461037f57600080fd5b60408051338152602081018390527ffa6c25ded7ac0d086023021518726a38380f49d54ef056cc73e73e6ab9740936910160405180910390a160405180602001604052806000815250600182815481106103db576103db611006565b9060005260206000200190805190602001906103f8929190610cc0565b5050565b6001600160a01b0381166000908152600460205260408120546060919067ffffffffffffffff8111156104315761043161101c565b60405190808252806020026020018201604052801561045a578160200160208202803683370190505b5090506000805b6001548110156104cb576000818152600360205260409020546001600160a01b03908116908616036104b957808383815181106104a0576104a0611006565b6020908102919091010152816104b581611032565b9250505b806104c381611032565b915050610461565b50909392505050565b606060006104e1836103fc565b90506000815167ffffffffffffffff8111156104ff576104ff61101c565b60405190808252806020026020018201604052801561053257816020015b606081526020019060019003908161051d5790505b50905060005b825181101561063057600183828151811061055557610555611006565b60200260200101518154811061056d5761056d611006565b90600052602060002001805461058290611059565b80601f01602080910402602001604051908101604052809291908181526020018280546105ae90611059565b80156105fb5780601f106105d0576101008083540402835291602001916105fb565b820191906000526020600020905b8154815290600101906020018083116105de57829003601f168201915b505050505082828151811061061257610612611006565b6020026020010181905250808061062890611032565b915050610538565b509392505050565b6000546001600160a01b0316331461066b5760405162461bcd60e51b815260040161066290611093565b60405180910390fd5b6106756000610c70565b565b6001818154811061068757600080fd5b9060005260206000200160009150905080546106a290611059565b80601f01602080910402602001604051908101604052809291908181526020018280546106ce90611059565b801561071b5780601f106106f05761010080835404028352916020019161071b565b820191906000526020600020905b8154815290600101906020018083116106fe57829003601f168201915b505050505081565b6000546001600160a01b0316331461074d5760405162461bcd60e51b815260040161066290611093565b604051806020016040528060008152506001828154811061077057610770611006565b90600052602060002001908051906020019061078d929190610cc0565b506000818152600360209081526040918290205482516001600160a01b0390911681529081018390527ffa6c25ded7ac0d086023021518726a38380f49d54ef056cc73e73e6ab9740936910160405180910390a150565b60006107ef336103fc565b90507ff7dff88ee56ac6a7744438010952533adbbe612933938772fe582b35bc1f03c833826040516108229291906110c8565b60405180910390a160005b81518110156103f85760405180602001604052806000815250600183838151811061085a5761085a611006565b60200260200101518154811061087257610872611006565b90600052602060002001908051906020019061088f929190610cc0565b508061089a81611032565b91505061082d565b6000546001600160a01b031633146108cc5760405162461bcd60e51b815260040161066290611093565b60405147906001600160a01b0383169082156108fc029083906000818181858888f19350505050158015610904573d6000803e3d6000fd5b50604080516001600160a01b0384168152602081018390527f3b8a47f29e292d43507afd17c83f1e8987f14c5a72985630aff6a2789e6f5047910160405180910390a15050565b600254600090815260036020526040812080546001600160a01b0319163317905560018054808201825591526109a4907fb10e2d527612073b26eecdfd717e6a320cf44b4afac2b0732d9fcbe2b7fa0cf6018383610d44565b503360009081526004602052604081208054916109c083611032565b91905055507f58c331219c7fa78337a61a87434a92b30473ea461250a6250126458f45fc6dbd3360025484846040516109fc94939291906110f4565b60405180910390a160028054906000610a1483611032565b91905055505050565b6000546001600160a01b03163314610a475760405162461bcd60e51b815260040161066290611093565b6000610a52826103fc565b90507ff7dff88ee56ac6a7744438010952533adbbe612933938772fe582b35bc1f03c88282604051610a859291906110c8565b60405180910390a160005b8151811015610b0557604051806020016040528060008152506001838381518110610abd57610abd611006565b602002602001015181548110610ad557610ad5611006565b906000526020600020019080519060200190610af2929190610cc0565b5080610afd81611032565b915050610a90565b505050565b6000838152600360205260409020546001600160a01b03163314610b2d57600080fd5b7e12b14e8c7844631cd130a65514d8073d28f99a84a7be763fd0fae9341fbee933848484604051610b6194939291906110f4565b60405180910390a1818160018581548110610b7e57610b7e611006565b906000526020600020019190610b95929190610d44565b50505050565b604080513381523460208201527f37a315b3f43f1869e932ab0797754e3a99d604620a839c69f9ef79e399d60a3c910160405180910390a1565b6000546001600160a01b03163314610bff5760405162461bcd60e51b815260040161066290611093565b6001600160a01b038116610c645760405162461bcd60e51b815260206004820152602660248201527f4f776e61626c653a206e6577206f776e657220697320746865207a65726f206160448201526564647265737360d01b6064820152608401610662565b610c6d81610c70565b50565b600080546001600160a01b038381166001600160a01b0319831681178455604051919092169283917f8be0079c531659141344cd1fd0a4f28419497f9722a3daafe3b4186f6b6457e09190a35050565b828054610ccc90611059565b90600052602060002090601f016020900481019282610cee5760008555610d34565b82601f10610d0757805160ff1916838001178555610d34565b82800160010185558215610d34579182015b82811115610d34578251825591602001919060010190610d19565b50610d40929150610db8565b5090565b828054610d5090611059565b90600052602060002090601f016020900481019282610d725760008555610d34565b82601f10610d8b5782800160ff19823516178555610d34565b82800160010185558215610d34579182015b82811115610d34578235825591602001919060010190610d9d565b5b80821115610d405760008155600101610db9565b600060208284031215610ddf57600080fd5b5035919050565b6001600160a01b0381168114610c6d57600080fd5b600060208284031215610e0d57600080fd5b8135610e1881610de6565b9392505050565b600081518084526020808501945080840160005b83811015610e4f57815187529582019590820190600101610e33565b509495945050505050565b602081526000610e186020830184610e1f565b6000815180845260005b81811015610e9357602081850181015186830182015201610e77565b81811115610ea5576000602083870101525b50601f01601f19169290920160200192915050565b6000602080830181845280855180835260408601915060408160051b870101925083870160005b82811015610f0f57603f19888603018452610efd858351610e6d565b94509285019290850190600101610ee1565b5092979650505050505050565b602081526000610e186020830184610e6d565b60008083601f840112610f4157600080fd5b50813567ffffffffffffffff811115610f5957600080fd5b602083019150836020828501011115610f7157600080fd5b9250929050565b60008060208385031215610f8b57600080fd5b823567ffffffffffffffff811115610fa257600080fd5b610fae85828601610f2f565b90969095509350505050565b600080600060408486031215610fcf57600080fd5b83359250602084013567ffffffffffffffff811115610fed57600080fd5b610ff986828701610f2f565b9497909650939450505050565b634e487b7160e01b600052603260045260246000fd5b634e487b7160e01b600052604160045260246000fd5b60006001820161105257634e487b7160e01b600052601160045260246000fd5b5060010190565b600181811c9082168061106d57607f821691505b60208210810361108d57634e487b7160e01b600052602260045260246000fd5b50919050565b6020808252818101527f4f776e61626c653a2063616c6c6572206973206e6f7420746865206f776e6572604082015260600190565b6001600160a01b03831681526040602082018190526000906110ec90830184610e1f565b949350505050565b6001600160a01b0385168152602081018490526060604082018190528101829052818360808301376000818301608090810191909152601f909201601f19160101939250505056fea2646970667358221220e6c51fc30fc75de0a42d2b1379d4b3851d3bc49c13ebcf5bcd082c359187925564736f6c634300080d0033",
    "sourcePath": "/home/dreth/Nextcloud/Documentos Importantes/Projects/web3-messages/contracts/messages.sol",
    "compiler": {
        "name": "solc",
        "version": "0.8.13+commit.abaa5c0e"
    },
    "functionHashes": {
        "addressToAmountOfMessages(address)": "3dda770e",
        "donate()": "ed88c68e",
        "messageId()": "669f618b",
        "messageIdToAddress(uint256)": "9f27df0d",
        "messagesArray(uint256)": "74c50db4",
        "modifyIndividualMessage(uint256,string)": "db704d3d",
        "owner()": "8da5cb5b",
        "removeAllMessages()": "a152b995",
        "removeAllMessagesOfSpecificUser(address)": "c8f865a2",
        "removeIndividualMessage(uint256)": "2bd10f42",
        "removeIndividualUserMessage(uint256)": "79fd65f5",
        "renounceOwnership()": "715018a6",
        "transferOwnership(address)": "f2fde38b",
        "viewAddressMessageIds(address)": "6b8941c0",
        "viewAddressMessages(address)": "6d9966d1",
        "withdrawDonations(address)": "a56f5b53",
        "writeMessage(string)": "b588bfad"
    },
    "gasEstimates": {
        "creation": {
            "codeDepositCost": "893200",
            "executionCost": "26770",
            "totalCost": "919970"
        },
        "external": {
            "addressToAmountOfMessages(address)": "2548",
            "donate()": "1537",
            "messageId()": "2352",
            "messageIdToAddress(uint256)": "2522",
            "messagesArray(uint256)": "infinite",
            "modifyIndividualMessage(uint256,string)": "infinite",
            "owner()": "2343",
            "removeAllMessages()": "infinite",
            "removeAllMessagesOfSpecificUser(address)": "infinite",
            "removeIndividualMessage(uint256)": "infinite",
            "removeIndividualUserMessage(uint256)": "infinite",
            "renounceOwnership()": "28159",
            "transferOwnership(address)": "infinite",
            "viewAddressMessageIds(address)": "infinite",
            "viewAddressMessages(address)": "infinite",
            "withdrawDonations(address)": "infinite",
            "writeMessage(string)": "infinite"
        }
    }
}